:100000000C9431000C9445000C944F000C94430068
:100010000C9443000C9443000C9443000C94430054
:100020000C9443000C9443000C9443000C94430044
:100030000C9443000C9443000C9443000C94430034
:100040000C9443000C9443000C9443000C94430024
:100050000C944300FC60DAF266B6BEE0FEF60102E4
:10006000040811241FBECFE5D4E0DEBFCDBF20E0E1
:10007000A0E6B0E001C01D92A136B207E1F70E94F0
:1000800059000C941A010C9400001F920F920FB6A5
:100090000F9211240F900FBE0F901F9018951F9272
:1000A0000F920FB60F9211240F900FBE0F901F905A
:1000B0001895CF93DF9300D000D0CDB7DEB719826B
:1000C0001A821B821C821ABA8FEF8BBB0E9494008B
:1000D000F12C00E010E0D12CCC24C394C8990CC0C2
:1000E000F0FAE0F8E0FC0AC00F3087E2180740F4AD
:1000F0000F5F1F4FFC2C07C0FD2C05C0FD2C03C05B
:10010000FC2C00E010E08FEC97E00197F1F700C0C5
:100110000000BE016F5F7F4FC8010E949F00CE01AB
:1001200001960E94ED00DACF8FEF84BB15BA87B33A
:100130008F6087BB88B3807F88BBC09A0895AC016D
:10014000FB019C0136952795369527953695279581
:10015000A5ECB0E20E940B01929582958F708927E1
:100160009F708927838368EE73E0869F9001879F45
:10017000300D969F300D1124421B530B9A0136957A
:10018000279536952795ABE7B4E10E940B0196952C
:100190008795828364E6689F9001699F300D1124E2
:1001A000421B530B9A01ADECBCEC0E940B019695DF
:1001B0008795969587959695879581839C01220FC3
:1001C000331F880F991F880F991F880F991F820F5F
:1001D000931F481B590B40830895AC019091600018
:1001E0009F5F93709093600015BA38B3307F38BB2F
:1001F000292F30E0F901E25AFF4FE49198B3E92B3F
:10020000E8BBFA01E20FF31FE081F0E0EC5AFF4F88
:10021000E491E5BB0895A29FB001B39FC001A39FE5
:10022000700D811D1124911DB29F700D811D11242F
:08023000911D0895F894FFCF21
:00000001FF
