:010000000CF3
:01000100946A
:010002002AD3
:0100030000FC
:010004000CEF
:010005009466
:010006003FBA
:0100070000F8
:010008000CEB
:010009009462
:01000A0041B4
:01000B0000F4
:01000C000CE7
:01000D00945E
:01000E004EA3
:01000F0000F0
:010010000CE3
:01001100945A
:010012003FAE
:0100130000EC
:010014000CDF
:010015009456
:010016003FAA
:0100170000E8
:010018000CDB
:010019009452
:01001A003FA6
:01001B0000E4
:01001C000CD7
:01001D00944E
:01001E003FA2
:01001F0000E0
:010020000CD3
:01002100944A
:010022003F9E
:0100230000DC
:010024000CCF
:010025009446
:010026003F9A
:0100270000D8
:010028000CCB
:010029009442
:01002A003F96
:01002B0000D4
:01002C000CC7
:01002D00943E
:01002E003F92
:01002F0000D0
:010030000CC3
:01003100943A
:010032003F8E
:0100330000CC
:010034000CBF
:010035009436
:010036003F8A
:0100370000C8
:010038000CBB
:010039009432
:01003A003F86
:01003B0000C4
:01003C000CB7
:01003D00942E
:01003E003F82
:01003F0000C0
:010040000CB3
:01004100942A
:010042003F7E
:0100430000BC
:010044000CAF
:010045009426
:010046003F7A
:0100470000B8
:010048000CAB
:010049009422
:01004A003F76
:01004B0000B4
:01004C000CA7
:01004D00941E
:01004E003F72
:01004F0000B0
:010050000CA3
:01005100941A
:010052003F6E
:0100530000AC
:01005400119A
:010055002486
:010056001F8A
:01005700BEEA
:01005800CFD8
:01005900E5C1
:01005A00D4D1
:01005B00E0C4
:01005C00DEC5
:01005D00BFE3
:01005E00CDD4
:01005F00BFE1
:01006000108F
:01006100E0BE
:01006200A0FD
:01006300E6B6
:01006400B0EB
:01006500E0BA
:01006600EAAF
:01006700ECAC
:01006800F0A7
:01006900E0B6
:01006A000293
:01006B00C0D4
:01006C00058E
:01006D009002
:01006E000D84
:01006F0092FE
:01007000A4EB
:010071003658
:01007200B1DC
:010073000785
:01007400D9B2
:01007500F793
:010076000E7B
:0100770094F4
:01007800582F
:010079000086
:01007A000C79
:01007B0094F0
:01007C006320
:01007D000082
:01007E000C75
:01007F0094EC
:01008000007F
:01008100007E
:010082008FEE
:0100830093E9
:010084008FEC
:01008500B7C3
:010086008FEA
:0100870093E5
:010088009FD8
:0100890093E3
:01008A0085F0
:01008B00B3C1
:01008C0091E2
:01008D00E092
:01008E0089E8
:01008F002749
:0100900085EA
:01009100BBB3
:010092009FCE
:0100930091DB
:010094008FDC
:0100950091D9
:010096008FDA
:01009700BFA9
:010098008FD8
:0100990091D5
:01009A00184D
:01009B0095CF
:01009C00184B
:01009D0095CD
:01009E00B8A9
:01009F009AC6
:0100A00089D6
:0100A100B7A7
:0100A20083DA
:0100A30060FC
:0100A40089D2
:0100A500BF9B
:0100A6008FCA
:0100A700EF69
:0100A8008CCB
:0100A900BF97
:0100AA0081D4
:0100AB00E66E
:0100AC0083D0
:0100AD00BF93
:0100AE000849
:0100AF0095BB
:0100B00080CF
:0100B100E668
:0100B20087C6
:0100B300BB91
:0100B40088C3
:0100B500B397
:0100B6008FBA
:0100B70079CF
:0100B80088BF
:0100B900BB8B
:0100BA0080C5
:0100BB00E65E
:0100BC0090B3
:0100BD00E062
:0100BE00EF52
:0100BF00DF61
:0100C000C57A
:0100C1009AA4
:0100C200C578
:0100C30098A4
:0100C400FD3E
:0100C500CF6B
:0100C600F841
:0100C70094A4
:0100C800FF38
:0100C900CF67
:0100CA0064D1
:0100CB0066CE
:0100CC000033
:0100CD000032
:00000001FF
